:0C0000000C9454000C9400000C940000C0
:10000C000C9400000C9400000C9400000C94000064
:10001C000C9400000C9400000C9400000C94000054
:10002C000C9400000C9400000C9400000C94000044
:10003C000C9400000C9400000C9400000C94000034
:10004C000C9400000C940000FFFFFFFFFFFFFFFF6C
:10005C00FFFFFFFFFFFFFFFFFFF6F6F6F680FFFF47
:10006C00B6B6B6B680FFFFE3DDBE80FFFFBEBEBEF8
:10007C00BEC1FFFFC9B6BE80FFFF9FE7E9EEE9E70F
:10008C009FFFFFFFFFFFFFFFFFFFFFFFFFFFFFFFD4
:10009C00FFFF4800010005009E000000F894EE27C9
:1000AC00ECBBF1E0FBBFEBBFE5BF8DE0A2E0BB27F3
:1000BC00ED938A95E9F780E098E0A0E6ED9301973F
:1000CC00E9F7E0EAF0E085919591009761F0A59150
:1000DC00B59105901590BF01F00105900D92019717
:1000EC00E1F7FB01F0CFEFE5EDBFE8E0EEBFC0E6D6
:1000FC00D2E00C94810048E0EFEFE4BBE0E0E5BB1C
:10010C00EFEFE1BBE0E0E2BBEFEFE7BBE0E0E8BB29
:10011C00542FA52DBB27E42FF0E00E94CF00EA1B43
:10012C00FB0B3196A52FB0E0AE17BF07F4F430E00F
:10013C003430C8F411E000E0083098F4E52FE01BEF
:10014C002E2F12BBF0E0E45AFF4F11D0E2BB18BBCC
:10015C00E22FF0E0EC5AFF4F0AD0E8BB110F0F5F13
:10016C00EBCF3F5FE5CF5F5FD4CFD2CFFFCF049013
:10017C0005BAA2E0B0E00E94C500E0E00895109638
:10018C0039F080ED97E00197F1F7A8951197C9F731
:10019C0008951B2EBF2FF12D1A2EAE2FE12D089591
:00000001FF
