:060000000C943C000C947E
:1000060069000C9473000C9480000C9400000C940E
:1000160000000C9400000C9400000C9400000C945A
:1000260000000C9400000C9400000C9400000C944A
:1000360000000C9400000C9400000C9400000C943A
:1000460000000C9400000C9400000C9400000000CA
:1000560080C001002D4E414E00494E460000010071
:1000660005005400020060025600010064025800B8
:100076000000F894EE27ECBBF1E0FBBFEBBFE5BF59
:100086008DE0A2E0BB27ED938A95E9F780E098E042
:10009600A0E6ED930197E9F7E4E6F0E08591959106
:1000A600009761F0A591B59105901590BF01F001FB
:1000B60005900D920197E1F7FB01F0CFEFE5EDBF5B
:1000C600E8E0EEBFC0E6D2E00C948D00EA93EFB70D
:1000D600EA93AB9902C0539402C0EAE05E0E09C0EF
:1000E600EA93EFB7EA93AB9902C05A9402C0EAE0EA
:1000F6005E1AE991EFBFE9911895AA93EA93EFB7D3
:10010600EA93E5B3A8E0EA27E5BBE991EFBFE991F9
:10011600A991189500E010E0E0E0E5BBE8E0E4BB5B
:10012600EBB7E06EEBBFEAE0E5BFE0E0E4BFE0EE90
:10013600EABFA0E179D07894E0E0EA93A0E035D078
:10014600E52DF0E0E7FDFFEFFA93EA93D8010E9470
:100156004501D80158D0A0E241D0A0E23FD0A2E3A9
:10016600B0E00E948101E8CFFFCFAA93E5B3EF701C
:10017600AE2FE881E07FEA2BE5BB8DE08A95F1F7AB
:10018600AA9A8DE08A95F1F7AA988DE08A95F1F7FB
:1001960077C0AA93A881E9DFE881E295E883A88180
:1001A600E4DF85E88A95F1F76BC0AA93E881F0E071
:1001B600E05AFD4FE081A981AE0FEBDF49807880E0
:1001C60022960895A2E00E947301ACE0E2DFA1E06E
:1001D6000E947301E0E07E2E4E2E0895AA93A88118
:1001E600AA3011F0461448F0E0E0EA937394A72D84
:1001F600DCDFA881AA3009F443C04394A89AA881F9
:10020600C8DFA8983DC0BA93AA931A93A981BA8168
:10021600ED91A983BA831E2FE03019F0A12FDEDFFE
:10022600F5CF188123960895AA93E4B3E06FE4BB53
:10023600A29AA09AA19AAA98A898A9986880E881F3
:10024600E058E0936202E881E054E0936302A4E19F
:10025600B0E00E9481010E9479010E9479010E940A
:100266007901A0E282DF88EC90E00197F1F7A8E23D
:1002760090DFA4E08EDFA5E88CDFA6E08ADFA2DFB0
:1002860021960895BA93AA93A991B991E991F99102
:1002960030962AF4E095F09531966DE26D93E894E8
:1002A60080E197E20DD088EE93E00AD084E69927A4
:1002B60007D08AE005D06E2F10D066276C9308957C
:1002C6006627E817F90720F06395E81BF90BC9F7CD
:1002D600662311F416F008956894605D6D93089591
:1002E6000E94CC00A3E0B0E00C948101A0E30E9440
:1002F600B80088EC90E00197F1F70895109639F070
:1003060080ED97E00197F1F7A8951197C9F7089541
:00000001FF
