:080000000C9448000C94000070
:100008000C9400000C9400000C9400000C94000068
:100018000C9400000C94A3000C9400000C940000B5
:100028000C9400000C9400000C9400000C94000048
:100038000C9400000C9400000C9400000C94000038
:100048000C9400000C9400000C94000017003A0077
:10005800000000004C434420436C6F636B003A007F
:1000680080C00800040054000A0060025C0002001E
:100078006A02660002006C02660002006E026600F8
:100088000200700268000000F894EE27ECBBF1E073
:10009800FBBFEBBFE5BF8DE0A2E0BB27ED938A95E0
:1000A800E9F780E098E0A0E6ED930197E9F7EAE642
:1000B800F0E085919591009761F0A591B591059033
:1000C8001590BF01F00105900D920197E1F7FB0132
:1000D800F0CFEFE5EDBFE8E0EEBFC0E6D2E00C946C
:1000E800D400BA93AA93E881E05DCFC0BA93AA93EB
:1000F8000E94FA0101E010E0AE81BF81EAE0F0E081
:100108000E94D901DF01EDDF3E2FAE81BF81EAE019
:10011800F0E00E94DE01DF01E4DF2E2FEC81EA939C
:10012800A02FA8D0A32FBDD0EC81EF5FEA93A02F1A
:10013800A1D0A22FB6D00E94FF0128960895EA9375
:10014800FA93EFB7EA93F50131965F01EAE0F0E040
:10015800EA15FB0501F5AA24BB24F40131964F01E9
:10016800ECE3F0E0E815F905B1F488249924F301EB
:1001780031963F01ECE3F0E0E615F70561F46624FB
:100188007724F20131962F01E8E1F0E0E415F50556
:1001980011F444245524E991EFBFF991E991189598
:1001A800E0E0EBBBEABBE8BBE7BBE5BBE4BBE2BB1B
:1001B800E1BBEFBDECE0EEBDE0E0EDBDECBDE7BDC1
:1001C800E6BDECE0EBBDE5E3EABDE0E0E9BDE8BD96
:1001D800E2E1E9BFA0E18DD0E4E0EA93A0E04AD0F3
:1001E800A0E6B2E075D078945A924A92A3E0B0E0C3
:1001F8007DDFE5E0AAD0AAE6B2E06AD07A926A92F8
:10020800A6E0B0E073DFE8E0A0D0ACE6B2E060D0F2
:100218009A928A92A9E0B0E069DFEBE096D0AEE668
:10022800B2E056D0ECE091D0D5015BDFAE2F39D0EB
:10023800DBCFFFCFAA93E5B3EF70AE2FE881E07F65
:10024800EA2BE5BB8DE08A95F1F7AA9A8DE08A95AD
:10025800F1F7AA988DE08A95F1F775C0AA93A8815D
:10026800E9DFE881E295E883A881E4DF85E88A95FB
:10027800F1F769C0AA93E881F0E0E059FD4FE08109
:10028800A981AE0FEBDFD980C88022960895A2E03D
:100298005FD0ACE0E3DFA1E05BD0E0E0CE2EDE2E65
:1002A8000895AA93A881AA3021F0E0917402DE167D
:1002B80048F0E0E0EA93C394AC2DDCDFA881AA30D3
:1002C80009F441C0D394A89AA881C8DFA8983BC074
:1002D800BA93AA931A93A981BA81ED91A983BA8393
:1002E8001E2FE03019F0A12FDCDFF5CF18812396FF
:1002F8000895AA93E4B3E06FE4BBA29AA09AA19AE6
:10030800AA98A898A998E881E0937402E058E09325
:100318007202E881E054E0937302A4E1B0E00E9425
:10032800B8011BD01AD019D0A0E284DF88EC90E085
:100338000197F1F7A8E292DFA4E090DFA5E88EDF4D
:10034800A6E08CDFA4DF21960895EA93A1E092CF7E
:1003580085DFA3E0B0E00C94B801A0E36BDF88EC84
:1003680090E00197F1F70895109639F080ED97E045
:100378000197F1F7A8951197C9F70895F195E195B7
:10038800F04008950024112490E1AA0FBB1F001C1F
:10039800111C0E1A1F0A18F40E0E1F1E01C0A160B0
:1003A8009A9599F7FD01D001089512D0EBDF0EF46C
:1003B800E5DF0895E894B7FF04C0A095B0951196BD
:1003C8006894F7FDDBDFDEDFFD010EF4D7DF08956B
:1003D800E894F7FF02C0D2DF6894B7FF06C0A09583
:1003E800B095119600F8039400FA08953A932A9369
:1003F8001A930A9308953B812A81198108810895E7
:00000001FF
