:0A0000000C944C000C9400000C94CA
:10000A0000000C9400000C9400000C9400000C9466
:10001A0000000C9400000C9400000C9400000C9456
:10002A0000000C9400000C9400000C9400000C9446
:10003A0000000C9400000C9400000C9400000C9436
:10004A0000000C9400000C94000054494D453E20D9
:10005A0000444154453E2000323000536162612021
:10006A0052617A69000080C001002D4E414E00495C
:10007A004E460000070060025400070067025B005A
:10008A0002007802700001007E0272000000F894FB
:10009A00EE27ECBBF1E0FBBFEBBFE5BFF8E1F1BD3A
:1000AA00E1BD8DE0A2E0BB27ED938A95E9F780E0F8
:1000BA0098E0A0E6ED930197E9F7EEE7F0E0859185
:1000CA009591009761F0A591B59105901590BF01A2
:1000DA00F00105900D920197E1F7FB01F0CFEFE5F2
:1000EA00EDBFE8E0EEBFC0E6D2E00C947C00E0E0B1
:1000FA00EBBBEABBE8BBE7BBE5BBE4BBE2BBE1BBEE
:10010A000E948A02E0E0EA93EA93A0E097D0A4E191
:10011A005AD110D1A0E6B2E034D1E0E0EA93A1E0EE
:10012A00FAD0A7E6B2E02DD1E5E0F0E0FA93EA933F
:10013A00E4E0F0E0FA93EA93A7E0B0E098D0E6E0D2
:10014A00F0E0FA93EA93E9E0F0E0FA93EA93E8E060
:10015A00F0E0FA93EA93ABE0B0E0A2D0E6E0EA93EB
:10016A00A0E0D9D0E52DF0E0FA93EA93D6010E94F7
:10017A001702D6010E945202E42DF0E0FA93EA93A4
:10018A00A0916E02B0916F020E941702A0916E02B6
:10019A00B0916F020E945202E72DF0E0FA93EA93BF
:1001AA00A0917002B09171020E941702A091700290
:1001BA00B0917102E6D0E6E0EA93A1E0ACD0E92D75
:1001CA00F0E0FA93EA93A0917202B09173020E944E
:1001DA001702A0917202B09173020E945202E82D96
:1001EA00F0E0FA93EA93A0917402B09175020E942A
:1001FA001702A0917402B09175020E945202A2E6FF
:10020A00B0E0CED0EB2DF0E0FA93EA93A09176021B
:10021A00B09177020E941702A0917602B0917702FC
:10022A00B0D0E0E0EA93A2E076D0A5E6B0E0B8D09C
:10023A00A8EEB3E00E94DB026CCFFFCFAA93EA815B
:10024A00E370EA83E981E03019F0EA81E061EA8348
:10025A00E881E03019F0EA81E068EA830E945802F6
:10026A00A7E00E94C302AA810E945D02AAC0BA93B3
:10027A00AA930E945802A0E00E945D020E946102B5
:10028A000E9469020E9470020E947602AE2F0E94AA
:10029A004502AC81BD81EC930E949E022696089588
:1002AA00BA93AA930E945802A3E00E945D020E9498
:1002BA006102AE81BF81EC930E947002AC81BD8164
:1002CA00EC930E9470020E9476020E9469020E94C8
:1002DA009E0228960895AA93EBB3EF70AE2FE88199
:1002EA00E07FEA2BEBBB8DE08A95F1F7DA9A8DE095
:1002FA008A95F1F7DA988DE08A95F1F791C0AA9379
:10030A00A881E9DFE881E295E883A881E4DF85E84E
:10031A008A95F1F785C0AA93E881F0E0E858FD4F85
:10032A00E081A981AE0FEBDFA980E881E0937C022E
:10033A0022960895A2E00E947C02ACE0E0DFA1E0F0
:10034A000E947C02E0E0E0937C02AE2E0895AA931C
:10035A00A881AA3021F0E0917D02AE1660F0E0E0BB
:10036A00EA93A0917C02AF5FA0937C02D4DFA881BC
:10037A00AA3009F455C0A394D89AA881C0DFD898A6
:10038A004FC0BA93AA931A93A981BA81ED91A9830E
:10039A00BA831E2FE03019F0A12FD9DFF5CF10C094
:1003AA00BA93AA931A93E981FA813196E983FA8377
:1003BA003197E4911E2FE03019F0A12FC8DFF3CF57
:1003CA00188123960895AA93EAB3E06FEABBD29AFA
:1003DA00D09AD19ADA98D898D998E881E0937D0290
:1003EA00E058E0937A02E881E054E0937B02A4E1CA
:1003FA00B0E00E94DB020E9482020E9482020E94F6
:10040A008202A0E268DF88EC90E00197F1F7A8E2A7
:10041A0076DFA4E074DFA5E872DFA6E070DF8ADF8A
:10042A0021960895BA93AA93A991B991E991F9915C
:10043A0030962AF4E095F09531966DE26D93E89442
:10044A0080E197E20DD088EE93E00AD084E69927FE
:10045A0007D08AE005D06E2F10D066276C930895D6
:10046A006627E817F90720F06395E81BF90BC9F727
:10047A00662311F416F008956894605D6D930895EB
:10048A00AA93E881E295EF70AE2FAA0FAA0FEA0F9E
:10049A00EE0FA991AF70EA0F08950E94C601A9E56F
:1004AA00B0E00C94D5010E948F02A0ED0C94C30217
:1004BA000E94C3020C949E020E948F02A1ED0E9428
:1004CA00C302A1E00C94A802AE2F0E944502A881A3
:1004DA00B981EC930895A1E00E94A802AE2F0C9472
:1004EA004502AA81BB81EC93A0E00C94A8020E9469
:1004FA008401A3E0B0E00C94DB02A0E30E94700147
:10050A0088EC90E00197F1F70895A898A998A09A25
:10051A00A19815C0A198A098EE270000999B08956C
:10052A00989B089504D0A19A02D0A09AE1E06DE0C8
:10053A0007C0A19AA09A03D0A098F9DFA1986BE10D
:10054A006A95F1F7089578E0A098F1DF989BFECFBD
:10055A00EEDF889499990894A09AF1DFEE1F7A95B4
:10056A0099F77A2F772311F4A19801C0A19ADFDFB6
:10057A00A098E5DFA09ADBDFA198D9CF78E0AA0F8F
:10058A0010F4A19801C0A19ADADFA098D0DF989B55
:10059A00FECFCDDFA09A7A9591F7A198C8DFA098EF
:1005AA00CEDFE1E09999EE27A09AC1CF109639F0F3
:1005BA0080ED97E00197F1F7A8951197C9F708958B
:00000001FF
