:020000000C945E
:100002003B010C9400000C9400000C9400000C9432
:1000120000000C9400000C9400000C9400000C945E
:1000220000000C9400000C9400000C9400000C944E
:1000320000000C9400000C9400000C9400000C943E
:1000420000000C9400000C9400000C9400000C942E
:10005200000005072060000000000000005F0000B3
:100062000007000700147F147F14242A7F2A12231A
:100072001308646236495522500005030000001C33
:100082002241000041221C00082A1C2A0808083EBE
:100092000808005030000008080808080030300046
:1000A2000020100804023E5149453E00427F4000B4
:1000B20042615149462141454B311814127F1027A4
:1000C200454545393C4A49493001710905033649DC
:1000D200494936064949291E00363600000056367F
:1000E20000000008142241141414141441221408AC
:1000F200000201510906324979413E7E1111117EF9
:100102007F494949363E414141227F4141221C7F7C
:10011200494949417F090901013E414151327F0864
:1001220008087F00417F41002040413F017F0814C1
:1001320022417F404040407F0204027F7F0408103A
:100142007F3E4141413E7F090909063E4151215E00
:100152007F09192946464949493101017F01013F79
:100162004040403F1F2040201F7F2018207F631403
:100172000814630304780403615149454300007F76
:100182004141020408102041417F000004020102A3
:10019200044040404040000102040020545454787E
:1001A2007F484444383844444420384444487F38E3
:1001B20054545418087E090102081454543C7F0810
:1001C20004047800447D40002040443D00007F103C
:1001D200284400417F40007C041804787C08040411
:1001E2007838444444387C14141408081414187CD5
:1001F2007C080404084854545420043F4440203CE2
:100202004040207C1C2040201C3C4030403C442884
:100212001028440C5050503C4464544C440008365E
:10022200410000007F000000413608000201020484
:10023200027F4141417F000103070F1F3F7FFF0003
:10024200536162612052617A690039393532313342
:100252003136000001002D4E414E00494E4600004D
:100262000A006002420209006A024C02010098027E
:1002720056020000F894EE27ECBBF1E0FBBFEBBFA7
:10028200E5BF8DE0A2E0BB27ED938A95E9F780E018
:1002920098E0A0E6ED930197E9F7E2E6F2E08591B6
:1002A2009591009761F0A591B59105901590BF01C8
:1002B200F00105900D920197E1F7FB01F0CFEFE518
:1002C200EDBFE8E0EEBFC0E6D2E00C9468012897EB
:1002D200E4E0EE83E0E0EF830FE310E02FE130E0B3
:1002E20040E050E0E4E5F0E0E883F983DE0187D105
:1002F200EDD1A2E3B0E00E94D90C0E94560BE0E0DF
:10030200EA93A0E6B2E00E945F070E94560BE5E383
:10031200EA93AAE6B2E00E945F070E945B0B0E948A
:10032200610B0E94680BAFE30E94A0070E94680B5A
:10033200EFE3EA930E94680BA0E20E94A0070E94EA
:10034200610BE7E3F0E00E946D0BE7E3F0E0FA9364
:10035200EA93E0E2EA93EDE2F0E00E946D0BE5E65B
:10036200F0E0FA93EA93E0E2EA930E94680BA0E2DB
:100372000E94A0070E94720BE5E6F0E00E946D0B5E
:100382000E94720B0E94790BAEE00E947E0BE6E1A6
:10039200EA93EDE2F0E00E946D0BE4E3F0E0FA9301
:1003A200EA93E6E1EA93E4E3F0E0FA93EA93A7E062
:1003B2000E94A0070E94790BEEE0EA930E94790B5B
:1003C200A7E00E94A0070E94790B0E94850BA7E07C
:1003D2000E947E0B0E948C0BA7E00E94A007EEE316
:1003E200F0E0FA93EA930E94850B0E94930B0E941D
:1003F2008C0B0E94930BE3E0EA93EEE3F0E0FA93B6
:10040200EA93A3E00E94A0070E945B0BE0E00E9437
:100412009B0B042E052A79F4AE81BF812A1B3B0B6C
:100422000E94A40B14F043E050E00E94B00B14F0C1
:1004320041E050E03CC0E1E0F0E0E417F50791F460
:10044200EE81FF812E0F3F1F0E94A40B14F042E0A9
:1004520050E0AE81BF81A20FB31FDF9714F040E0DE
:1004620050E025C0E2E0F0E0E417F50791F4EE81F8
:10047200FF812E0F3F1F0E94B80B14F041E050E0A5
:10048200AE81BF81A20FB31FDF9714F043E050E0AB
:100492000EC0AE81BF812A1B3B0B0E94B80B14F029
:1004A20040E050E00E94B00B14F042E050E0E1E086
:1004B2000E949B0BA2E3B0E00E94D90CA7CFFFCF12
:1004C2000000C09A00000895C098C498C598C698C4
:1004D200C798A89808951A93F3DF19B3C098E12F2B
:1004E20019910895AA931A93E0E0EABBC19AC298BF
:1004F200E981A1E00E94E70C1E2F10FF02C0C49AFE
:1005020001C0C49811FF02C0C59A01C0C59812FF6C
:1005120002C0C69A01C0C69813FF02C0C79A01C0A2
:10052200C79814FF02C0A89A01C0A898D4DFE07847
:10053200E9F7188105C0AA93A981D4DF0E94C20BF2
:1005420022960895E0919602EA93E0919402EF7365
:10055200E064AE2FF0DFE0919602EA93E091970219
:10056200E86BAE2FE8DF0895AA93E981FA81E09360
:100572009402F0939502A981BA81E6E00E94F70CF9
:10058200E0939602E881E0939702DCDF10C1A4E9D0
:10059200B2E0ED91FD913196FE93EE93E034A1E04D
:1005A200FA0728F0E0E0E0939402E0939502E091EC
:1005B2009402EF7349F4E0919402F0919502FA9358
:1005C200EA93A0919702D0DF0895AA93A091960290
:1005D20089DFC29A0E94C20B21960895A0919602C9
:1005E20081DFE0E0EABBC19AC29A75DF08950E94FA
:1005F200CB0B0E94D20BF2DFA5DFF0DFD8C0BA939B
:10060200AA931A93B89AB99ABA9ABB9AC39ABC9AFD
:10061200BD9ABE9ABF9AA09A57DFC398A4E6B0E0EB
:100622000E94D90CC39A10E0153040F41A93AFE33C
:1006320082DF1A931395A0EC7EDFF6CFE1E0E09320
:100642007302E0E0E0937402E981FA813097A9F045
:10065200A981BA810E94120DE0937802F093790287
:1006620012960E94120DE0939002F0939102A981DA
:10067200BA8114960E94120D0AC0E0E0F0E0E09305
:100682007802F0937902E0939002F0939102E09362
:100692009202F0939302E1E0E0937A02E0937B020C
:1006A200E0937C02EFEFE0937D02E1E0E0938702CA
:1006B200E8E8F2E0FA93EA93EFEFEA93A8E0B0E019
:1006C2000E94D50A03D0E1E0188171C00E943D0D5D
:1006D20030E020E0E0917402E03009F03FEF283092
:1006E20098F40E94560BA22F2F5F3EDF00E010E02D
:1006F200D8010F5F1F4FA034E1E0BE0720F4A32F03
:100702000E94D80BF5CFEBCF0E94560BA0E02CDF56
:100712000E94560BA0E006D40E94440D2496089530
:10072200AA931A930A93AC81BD81A034E1E0BE077B
:1007320018F4AB81A03418F019810881D4C3EC817C
:10074200FD81FA93EA93AD8152DF1E2FFBDEEB812E
:10075200E770A1E00E94E70C0E2FEA81E03011F071
:10076200102B03C0E02FE0951E23A12F2EDF19814D
:100772000881B9C3AA93A981BA81A034E1E0BE0776
:1007820018F4A881A03410F0E0E011C0E981FA81E8
:10079200FA93EA93AA812BDF1E2EE881E770A1E08B
:1007A2000E94E70CE12111F0E1E001C0E0E02396B4
:1007B2000895AA931A93ED81FE81FA93EA93AE818A
:1007C20016DF1E2FBFDEE981E73011F0E83039F481
:1007D200EB81EA93AA810E94F00AEB8308C0E3301E
:1007E20021F4EB81E095EB8302C0E03021F4EA8151
:1007F200E0951E2302C0E23029F4EA81AB81EA23AC
:100802001E2B0EC0E13029F4EA81AB81EA231E27B8
:1008120007C0E43029F4EA81E095AB81EA2B1E237C
:10082200A12F0E94D80B188127960895AA93269784
:100832000E943B0DAC89BD89A034E1E0BE0750F4B3
:10084200AB89A03438F4A989BA89109719F0A8891C
:10085200A03009F403C2E989FA89E887F987E989AE
:10086200FA89AC89BD89AE0FBF1FA134E1E0BE0792
:1008720040F0AC89BD89E0E4F1E0EA1BFB0BE98BB7
:10088200FA8B4889AB89BB27E889F0E0AE0FBF1F1E
:10089200A134E0E0BE0720F0AB89E0E4EA1BE88B7C
:1008A200AC85A63009F061C0EF85E13009F4D6C10C
:1008B200E33039F4E0919202F0919302309709F417
:1008C200CDC128853985E889E695E695E6955E2FBE
:1008D200E42FE77019F4A8894A17D9F0E52FD90156
:1008E200F0E00E940A0D0E94DC0B46954695469563
:1008F2005B87AB85AF5FAB87A1504A1750F0890188
:10090200F80101501040309719F00E94E30BF8CF24
:10091200F0CFA989BA892A173B0739F1E989FA89FF
:100922000E94DC0BE889E77009F05F5F40E04F93BB
:100932004F5FE52FAF91AE17C0F409891A891F9353
:100942000F930F5F1F4FF901AF91BF91AE17BF0712
:1009520018F40E94E30BF3CFE989FA89AE81BF81D3
:10096200EA0FFB1FEE83FF83E2CFEB89E7705E2F76
:10097200E889E03009F472C1ED85FE85EE83FF83DC
:1009820000E010E02C893D89503009F06FC0A88941
:10099200A83008F465C0EC85E03011F0E33009F4CA
:1009A20002C0E73009F402C0E83009F402C0E630C0
:1009B20009F402C0E93009F402C0EA3029F43A939A
:1009C2002A93ED890E94D20B1F930F930E94F00B82
:1009D200AF91BF91AE17BF07E0F5AC85A63061F4C9
:1009E200FDDDB0DD0E94F50BFA93EA93F7DDAE2F41
:1009F2000E94370BCCDD2CC0EC85E93019F4E0E025
:100A0200EB870FC0EA3019F4EFEFEB870AC00E94C0
:100A1200F50B0E94FE0BEB87EC85E73011F0E83016
:100A220021F40E94040CEB8708C0E33021F4EB852B
:100A3200E095EB8702C0E03021F4AB850E94D80B31
:100A420007C00E94090C0E940F0CEFEF0E94140CC9
:100A5200BBCFEB89E85FEB8BE889E850E88BF5C008
:100A6200E889EB8740E0E0E0E88B8CC0E52FA889BD
:100A7200AE0FA93020F44889E0E0E88B03C0E8E03B
:100A8200E51B4E2F5A93A42F0E94E50AEA87EC85B4
:100A9200E63011F51F930F930E94F00BAF91BF91B7
:100AA200AE17BF07C0F40E94090CAD89A0DDAA856C
:100AB200EA23AE2FE52F0E94EF0C0E94180CE52FBF
:100AC200AA850E94EF0C0E94230CFA93EA93AE854A
:100AD2000E94370BDFCF38C0E93011F4E0E003C0E9
:100AE200EA30E1F4EFEFEB870E94040CAE2FE52F22
:100AF2000E94E70CEB871F930F930E94F00BAF91BC
:100B0200BF91AE17BF0748F40E94090C0E940F0C58
:100B1200EE85EA93A0E04DDEEECF16C01F930F9351
:100B22000E94F00BAF91BF91AE17BF0768F40E940D
:100B3200090C0E94290CAE2FE52F0E94E70CEA93C4
:100B4200EE850E94140CEACFE889E03009F486C0F1
:100B5200A889A83028F4E889E41BEB87E0E003C009
:100B62005B87E889E850E88B00E010E0EB89E85FFA
:100B7200EB8BE8E0E51B4E2F2C893D89ED85FE8548
:100B8200EE83FF83EB85F0E0E85CFD4F04900A867C
:100B9200EC85E63011F51F930F930E94F00BAF9195
:100BA200BF91AE17BF07C0F40E94090CAD891FDDCB
:100BB200AA85EA23AE2FE42F0E94E70C0E94180CAC
:100BC200E42FAA850E94E70C0E94230CFA93EA9371
:100BD200AE850E94370BDFCF38C0E93011F4E0E078
:100BE20003C0EA30E1F4EFEFEB870E94040CAE2F72
:100BF200E42F0E94EF0CEB871F930F930E94F00BE0
:100C0200AF91BF91AE17BF0748F40E94090C0E9432
:100C12000F0CEE85EA93A0E0CCDDEECF16C01F9359
:100C22000F930E94F00BAF91BF91AE17BF0768F40C
:100C32000E94090C0E94290CAE2FE42F0E94EF0C97
:100C4200EA93EE850E94140CEACFE885F985AD851A
:100C5200BE85EA0FFB1FED87FE878ACE0E94420DFA
:100C6200669608950E94340C24F0E0E0F0E00C94C3
:100C7200EE0AA881B981A034E1E0BE0724F0EFE3D7
:100C8200F1E00C94EE0AE881F9810C94EE0A0E94DC
:100C9200340C24F0E0E0F0E00C94EE0AA881B98173
:100CA200A034E0E0BE0724F0EFE3F0E00C94EE0A9B
:100CB200E881F9810C94EE0A0E94CB0BEA93A09191
:100CC20073022EDD0C94350BBA93AA9323970E94DC
:100CD2003B0C8F01002E012A19F4E0E0F0E051C430
:100CE2000E94420C0F820E94420C0E820E94420C11
:100CF2000886EB85A885EA1718F4E0E0F0E041C425
:100D0200F8010F5F1F4F5491A885BB27EE27A50F4F
:100D1200BE1FEB85F0E0EA17FB0718F0E0E0F0E019
:100D220030C4EE81E695E695E6954E2FEE81E770AA
:100D320009F04F5FEF81E030A1F0A985BA85EC930D
:100D4200A885EB85EA1BF0E0DF01EF81F0E00E946D
:100D52000A0DDF01E42FF0E00E940A0DE00FF11FFF
:100D620010C49801E52FF0E00E0F1F1FA885AF5F9A
:100D7200A887A150EB85AE1760F4F9012F5F3F4FB2
:100D8200A491B0E0E42FF0E00E940A0D0E0F1F1FA5
:100D9200EDCFF901E491A985BA85EC93F801F1C38D
:100DA200E0E0F0E00E94470CA0917702BB270E948E
:100DB2004C0CF0E0AE0FBF1FE0917B02F0E0AE0FF3
:100DC200BF1F65DFE09377020895AA9321970E94DF
:100DD2003B0C309709F46AC0AF81AA3009F464C0B1
:100DE200EF81EA93DE0117966FDFAF01309709F4C6
:100DF20061C0E0917A02AE81EA0F3E2FA0917502A6
:100E0200B0917602F0E0EA0FFB1F8F010134E1E0BE
:100E12001E0718F0032F1127C3DF0E94530CE09125
:100E22007702EA93E985F0E0FA93EA930E944C0C88
:100E3200EA93E1E0EA935A934A93A7E0F7DCA091A0
:100E42007502B0917602EE81F0E0EA0FFB1FFA9391
:100E5200EA93E0917702EA93E0917A02F0E0FA9362
:100E6200EA930E944C0CEA93E0E0EA930E94560B4C
:100E7200A9E0DCDC0E94530CA09177020E944C0C8A
:100E8200EA0FEA93E32FF0E0FA93EA93E0917B0210
:100E9200EA93E0E0EA930E94560BA9E0C7DCE0E4A3
:100EA200F1E0E017F10711F47BDF04C00093750253
:100EB200109376020E94420D28960895BA93AA933F
:100EC2001A93EC81FD81FA93EA93AD812BD0A9812B
:100ED200BA81ED91A983BA831E2FE03019F0A12FB8
:100EE20074DFF5CF188126960895AA93EA81FB81D3
:100EF200FA93EA93EB81EA93E0917D02AB81EA23D4
:100F020019F0E091730202C0E0917402AE2F08DC86
:100F1200E881EE0FE883E03011F4E1E0E883E88154
:100F22000C94540BAA93A981BA819CDE0E94470CAF
:100F3200A881BB27ACDEE09377020C94350BAA9311
:100F42002D970E943B0DAF89B88D8CDEEF8BF88F09
:100F5200AC89BD8987DEEC8BFD8BAE89BB2797DE22
:100F6200EE8BAB89BB2793DEEB8BEC89FD890E946C
:100F7200470CEB89E0937702E1E0E887EB89AE89E1
:100F8200EA1709F03FC00F89188DAC89BD890A178D
:100F92001B0739F41A930A93E88DEA93A1E0A5DFBF
:100FA200EDC0AC89BD890A171B0740F4EC89FD89A5
:100FB200E01BF10B9F01E1E0F0E008C0AC89BD89C4
:100FC200F801EA1BFB0B9F01EFEFFFEFE98BFA8BB6
:100FD2005E89E0E0EE830E945A0C40F41A930A9371
:100FE2005A935395AB8581DFEF83F5CFEF81E88785
:100FF200E989FA890E0F1F1FF901215030403097FD
:1010020039F7BCC0EC89FD89AF89B88DEA17FB07B7
:1010120059F55E89AB895A1730F4EB89E51B4E2FDF
:10102200E1E0F0E006C0AB89E52FEA1B4E2FEFEFBF
:10103200FFEFED87FE870F89188DE0E0EE830E94B7
:101042005A0C48F4F8010F5F1F4FFA93EA930E947B
:10105200620CEF83F4CFEF81E887ED855E0FE42F1A
:101062004150E03041F78AC0E0E0EE830E945A0C22
:1010720008F084C00F89188D5E89E1E04E2F2E2F73
:101082003327AF89B88DEC89FD89EA1BFB0BE98B0D
:10109200FA8BAA89AA2332F42FEF3FEF0E94E30CC6
:1010A200E98BFA8BE989FA89EE0FFF1FEF87F88B3C
:1010B200AB89BB27EE89F0E0AE1BBF0BAD87BE87C5
:1010C200AE85AA233AF44FEFED85FE850E94E30C2C
:1010D200ED87FE87ED85FE85EE0FFF1FEB87FC8710
:1010E2001A930A935A93A1E000DFE887E0E0E987C8
:1010F200EA87E989FA89AD85BE85EA17FB07ECF034
:10110200020F131FEB85FC850E94660CE989FA89A0
:10111200A985BA85EA17FB072CF4540FAF85B88965
:101122000E946D0C1A930A930E94620CE887EC8964
:10113200FD89E017F10721F71AC0540FEF85F889EE
:101142000E94660CED85FE85A985BA85EA17FB0724
:1011520034F4020F131FAB85BC850E946D0C1A93E9
:101162000A930E94620CE887EB89E51731F7EE8952
:10117200EF5FEE8BEB89EF5FEB8B78CF0E94420D36
:1011820069960895BA93AA9323970E943B0DED8521
:10119200E887E0917C02EF83E0917302EE83EF85B2
:1011A200AB89BC89F0E0EA0FFB1F8F01AA89BB273C
:1011B200E889F989AE1BBF0B9D01EA89F0E0A88995
:1011C200B9890E94740C71F0E885E078E1F4AD858C
:1011D200BE85EAE5F0E00E947B0C1CF00E94840CC4
:1011E2000CF411C0332312F00E94890CAF81A2309B
:1011F20020F02230E0E03E070CF405C00E948E0C85
:1012020011F40E94980CE885E878E83891F0E885B6
:10121200E078B9F4AD85BE85A25FBE4F0E949E0CF8
:101222003CF0AD85BE85A25FBE4F0E94A30C0CF4BC
:1012320008C00E94A80C28F00E94B00C11F40E9471
:10124200BA0CEF85AB89BC89F0E0AE1BBF0B8D01F8
:1012520011230AF441C0E885E278E23891F0E8858A
:10126200E07801F5AD85BE85A65ABF4F0E949E0C5F
:101272003CF0AD85BE85A65ABF4F0E94A30C0CF46C
:1012820011C0332312F00E94890CAF81A23020F0EA
:101292002230E0E03E070CF405C00E948E0C11F4EF
:1012A2000E94980CE885E478E43871F0E885E078EB
:1012B20099F4AD85BE85EEE0F1E00E947B0C1CF056
:1012C2000E94840C0CF408C00E94A80C28F00E9412
:1012D200B00C11F40E94BA0CE889F989AB89BC8977
:1012E200EA0FFB1F8F01AA89BB27EF85F0E0AE1B37
:1012F200BF0B9D01AA89BB27EF85F0E00E94740C09
:1013020081F0E885E078F9F4EB85FC85AD85BE8552
:10131200AE17BF072CF0E985FA85EA17FB070CF434
:1013220012C0332382F00E94890CAF81A23058F0A0
:10133200F80132960E94C00C31F4F8013196FA930A
:10134200EA93A22FB9DCE885E878E83871F0E885FD
:10135200E078C9F4AD85BE85E8E6F1E00E947B0C39
:101362001CF00E94840C0CF40EC00E94A80C58F0D1
:10137200F80132960E94C90C31F4F8013196FA93C1
:10138200EA93A42F99DCA889B989EB89FC89EA1B25
:10139200FB0B8F0111230AF452C0E885E278E23890
:1013A20071F0E885E07811F5AD85BE85E4EBF0E0FB
:1013B2000E947B0C1CF00E94840C0CF417C0332397
:1013C200AAF00E94890CAF81A23020F00230E0E046
:1013D2001E070CF40BC0F80132970E94C00C31F4C6
:1013E200F8013197FA93EA93A22F66DCE885E47854
:1013F200E43891F0E885E07811F5AD85BE85AC540E
:10140200BF4F0E949E0C3CF0AD85BE85AC54BF4FD1
:101412000E94A30C0CF413C00E94A80C20F002300E
:10142200E0E01E070CF40BC0F80132970E94C90CD1
:1014320031F4F8013197FA93EA93A42F3DDC0E942C
:10144200420D65960895BA93AA930E943B0DA88512
:10145200B985EB85FC85EA1BFB0BDF0103DC8F0101
:10146200E885F985AB85BC85AE0FBF1FFBDB9F010D
:10147200AA85BB27EE81FF81AE1BBF0B08DC5E2F66
:10148200EA85F0E0AE81BF81AE0FBF1F00DC4E2FB8
:101492001A930A935A933A932A93A52F50DD1A93DB
:1014A2000A934A933A932A93A42F49DD0E94420D4C
:1014B2002D960895AA930E943B0DAA85BB85A03460
:1014C200E1E0BE0718F4A985A03408F05AC02091C3
:1014D2007C02E22F2150E03009F453C0EF81F885FD
:1014E200309709F44EC0EF81F8853197EF83F88782
:1014F20031963E2FF0E0A5E0B0E0AE1BBF0BFD0140
:101502000E94000D0E94050DAF0100E010E0AE81C7
:10151200A03481F40E94D20C1A930A93A32FBB2702
:1015220092DF0E94D20CE32FF0E0FA93EA93D80103
:101532008ADF0EC00E94D20C1A930A933A93EC856A
:10154200F0E0FA93EA930E94560BA0E0B0E01ADEB4
:101552000F5F1F4F552312F4F80107C03150E32FDC
:10156200D801F0E0AE1BBF0BFD01EE0FFF1F31965D
:101572004E0F5F1FE32FD801F0E0EA17FB0738F6A2
:10158200A8CF0E94420D2C960895BA93AA93EB819C
:10159200FC81FA93EA93EC81EA93EB81FC81FA9362
:1015A200EA93AFE887DF0EC0BA93AA93B981A88104
:1015B200109631F0FC81EB816A8161931197E9F712
:1015C200EB81FC8125960895AA93E881F0E0E85C1E
:1015D200FD4FA491E9810E94E70C22960895AA93F7
:1015E2001A93E981E73011F0EA3019F4109173028D
:1015F20009C0E93019F41091740204C0E830A1F472
:1016020010918702E0917402E03049F0103019F035
:10161200EFEF188129C0EA81E095188125C01030CA
:1016220019F4E0E0188120C0EA8118811DC0BA9344
:10163200AA93EA81E13021F4E881F981E49114C0AE
:10164200E23029F4A881B9810E94160D0DC0E33061
:1016520041F4A881B981E0919002F091910209953B
:1016620003C0A881B981EC9123960895AA93EB81D6
:10167200E03029F4E881A981BA81EC9314C0E23008
:1016820031F4E881A981BA810E94220D0CC0E330B5
:1016920051F4E981FA81FA93EA93AA81E0919202E4
:1016A200F0919302099524960895E0E0F0E0FA9310
:1016B200EA930895A0EDB7E00E94D90C0C94670359
:1016C200E7E3F0E0FA93EA93EFE3EA930895EBE5B8
:1016D200F0E0FA93EA930895FA93EA93A0E20C9465
:1016E200A007E9E4F0E0FA93EA93E0E0EA930895D0
:1016F200EBE3F0E0FA93EA9308950E94A007E4E393
:10170200F0E0FA93EA930895E7E0EA93EEE3F0E07B
:10171200FA93EA930895E7E0EA93E1E3F0E0FA93BB
:10172200EA930895A3E00E94A007E1E3F0E0FA93B0
:10173200EA930895E09373021A930A932A93A4E01A
:10174200B0E00C94C60AEE81FF810E0F1F1FAE811E
:10175200BF81A00FB11FAF37E0E0BE070895AE8191
:10176200BF81F901EA1BFB0B0E94330D0895AE8184
:10177200BF810A1B1B0BF801EA1BFB0B0E94330DF6
:101782000895C198EFEFEABBE881EBBB0E946102CA
:101792000C946502AA93E981FA81FA93EA93EA81A9
:1017A2000895E695E695E695AE2F0C94B5020E9453
:1017B200E6020C94C802AD85BE85EA0FFB1FEE83DC
:1017C200FF830895EF85EA93EF81F8853196EF83E1
:1017D200F8873197FA93EA93A0E00C94370B0F5FE6
:1017E2001F4FE989FA890895EF85EA93EF81F88519
:1017F2003196EF83F8873197089566277727DF01BF
:10180200CB010C94180BEB85EA93AD850C94F00A8E
:10181200F9012F5F3F4FFA93EA930895ED89EA9316
:10182200EE85EA930895EA93A9890C94DA03EB878B
:10183200EF85EA93AF81B885882799270E94180B14
:101842001E2E0895E095E121AB85EA2BEB87CCCFE4
:10185200ED89EA93EA89EA93EA85FB853196EA877C
:10186200FB873197CACFBA93AA93A881B9810E9404
:10187200370D08950E943B0DE0917802F0917902B4
:101882000895F8010F5F1F4F04900895E0937502C9
:10189200F09376020895E0917802F0917902319600
:1018A200E4910895E0917502F0917602FA93EA9339
:1018B2000895AE81AF5FAE83A150E0917C02AE1776
:1018C20008955A93AB850C947607A985BA85EA0FD9
:1018D200FB1FE987FA870895E985FA85EA1BFB0B66
:1018E200E987FA870895EA0FFB1FAF01E885E178DF
:1018F200E1380895EA1BFB0B0F01DF01EB85FC8544
:10190200AE17BF070895E985FA85E015F105089538
:101912001A930A93A22F0C945D061A930A93A22F8C
:10192200A2500E94BB03AE2FEE81EA1708951A93CC
:101932000A93A22FA1500C945D06EB85FC85AE178D
:10194200BF070895E985FA85EA17FB0708951A93F8
:101952000A93A42F0E945D06AF81A23008951A93C4
:101962000A93A42FAE5F0E94BB03AE2FEE81EA174B
:1019720008951A930A93A42FAF5F0C945D06FA930D
:10198200EA93A22F0E94BB03AE2FEE81EA170895BD
:10199200FA93EA93A42F0E94BB03AE2FEE81EA17BB
:1019A2000895EA85FB85FA93EA93EB85EA93089515
:1019B200109639F080EA9FE00197F1F7A895119708
:1019C200C9F70895F195E195F0400895EE230E2EA2
:1019D200EA2F19F0EE0F0A94E9F70895EE230E2E7E
:1019E200EA2F19F0E6950A94E9F70895EE230E2EF0
:1019F200FD0121F0F695E7950A94E1F70895EE0FBF
:101A0200FF1FEE0FFF1F0895F595E795F595E795F2
:101A12000895FA9FF02DEB9FF00DEA9FE02DF10D56
:101A22000895ED91FC9111970895E199FECFFF93EE
:101A3200FFB7F894AEBBBFBBE09AEDB3FFBFFF9117
:101A42000895E19B02C0A895FCCF9FB7F894AEBB66
:101A5200BFBBE09A8DB3E81719F0EDBBE29AE19AA9
:101A62009FBF089500240E160F06089500240A163B
:101A72000B0608955A934A933A932A931A930A9318
:101A820008955D814C813B812A81198108810895E5
:00000001FF
