:0A0000000C9443000C9400000C94D3
:10000A0000000C9400000C9400000C9400000C9466
:10001A0000000C9400000C9400000C9400000C9456
:10002A0000000C9400000C9400000C9400000C9446
:10003A0000000C9400000C9400000C9400000C9436
:10004A0000000C9400000C9400001027E8036400E0
:10005A000A000100001000011000010053616261F2
:10006A002052617A690080C00A00600266000A00B4
:10007A006A0266000200740270000000F894EE271B
:10008A00ECBBF1E0FBBFEBBFE5BF8DE0A2E0BB2715
:10009A00ED938A95E9F780E098E0A0E6ED93019761
:1000AA00E9F7E2E7F0E085919591009761F0A59173
:1000BA00B59105901590BF01F00105900D92019739
:1000CA00E1F7FB01F0CFEFE5EDBFE8E0EEBFC0E6F8
:1000DA00D2E00C947000E0E0EBB9E8E1EAB9E6E8B6
:1000EA00E0BDE0E0E0BDE3E3E9B9A0E1AAD00E9407
:1000FA0054011E2FA12F0E945801A12F7AD0133428
:10010A0021F46BD00E945F0120C01D3459F40E9473
:10011A005F0163D0E0E0EA93A0E052D0A0E6B2E04B
:10012A007FD013C01E3441F40E945F01AAE6B2E0F8
:10013A000ED00E945F0109C0133639F400E008317D
:10014A0020F40E945F010F5FFACFD1CFFFCFBA939D
:10015A00AA931A9310E0A981BA81EE27A10FBE1FB4
:10016A00EC91E03051F0A981BA81EE27A10FBE1FB0
:10017A00AC910E9458011F5FEECF60C0AA93E5B30D
:10018A00EF70AE2FE881E07FEA2BE5BB8DE08A9520
:10019A00F1F7AA9A8DE08A95F1F7AA988DE08A95E7
:1001AA00F1F70C945D01AA93A881E8DFE881E29552
:1001BA00E883A881E3DF85E88A95F1F70C945D016D
:1001CA00AA93E881F0E0EC58FD4FE081A981AE0FD7
:1001DA00EADF5980488022960895A2E00E946501CC
:1001EA00ACE0E1DFA1E00E946501E0E04E2E5E2E68
:1001FA000895AA93A881AA3011F0571450F0E0E0AC
:10020A00EA934394A42DDCDFA881AA3011F40C945C
:10021A005D015394A89AA881C6DFA8980C945D0141
:10022A00BA93AA931A93A981BA81ED91A983BA8341
:10023A001E2FE03019F0A12FDCDFF5CF18812396AD
:10024A000895AA93E4B3E06FE4BBA29AA09AA19A94
:10025A00AA98A898A9987880E881E058E09376024D
:10026A00E881E054E0937702A4E1B0E00E947301D0
:10027A000E946B010E946B010E946B01A0E27EDF6B
:10028A0088EC90E00197F1F7A8E28DDFA4E08BDF1C
:10029A00A5E889DFA6E087DFA0DF0C945D015F9BFC
:1002AA00FECFECB10895AA935D9BFECFE881ECB92D
:1002BA0021960895ADE00E945801AAE00C945801D5
:1002CA000E94D800A3E0B0E00C947301A0E30E945E
:1002DA00C30088EC90E00197F1F70895109639F081
:1002EA0080ED97E00197F1F7A8951197C9F708955E
:00000001FF
