:020000020000FC
:04000000C1E0FEC09D
:020028006FC1A6
:02001C007AC1A7
:100200000FEF07BB0FEF04BB01BB0BBB00E00ABB4A
:100210000CE003BF00E002BF03E60CBF00E00FBD2F
:100220000CE00EBD0AE70BBD02E10ABD02E109BF09
:100230007894E0E0F0E0B0E01E2F8F2F40E050E037
:1002400060E070E01E2F8F2F1A3020F02AE0121B82
:100250005395FACF612F70E08A3020F0821B73959E
:100260000000FACF482F000007EF02BB062F0E94C4
:100270005C0105BBC13009F4F7CF0BEF02BB052FC2
:100280000E945C0105BBC23009F4F7CF0DEF02BB41
:10029000042F0E945C0105BBC33009F4F7CF0EEFB9
:1002A00002BB0000072F00000E945C01000000005C
:1002B00005BBC43009F6F3CF003011F40FE3089505
:1002C000013011F406E00895023011F40BE50895B1
:1002D000033011F40FE40895043011F406E6089594
:1002E000053011F40DE60895063011F40DE7089578
:1002F000073011F407E00895083011F40FE708956E
:10030000093009F40FE60895C395C53009F4C1E03A
:100310001895BB0FB03009F4B1E0B8BB99B3903079
:1003200079F400C0F33629F4E33641F4F0E0E0E07C
:100330001895E33619F4E0E0F3951895E3951895D0
:10034000F03029F4E03041F4F3E6E3E61895E030CC
:0C03500019F4E3E6FA951895EA95189563
:00000001FF
