:020000000C945E
:100002004E000C9400000C9400000C9400000C9420
:1000120000000C9400000C9400000C9400000C945E
:1000220000000C9400000C9400000C9400000C944E
:1000320000000C9400000C9400000C9400000C943E
:1000420000000C9400000C9400000C9400000C942E
:10005200000000004B455950414420414E44204C81
:1000620043440050524F4A454354000080C00100AF
:100072002D4E414E00494E4600000200060054003B
:100082000F006002560008006F026500020088023D
:100092006E0001008C0270000000F894EE27ECBBA9
:1000A200F1E0FBBFEBBFE5BF8DE0A2E0BB27ED9324
:1000B2008A95E9F780E098E0A0E6ED930197E9F7E9
:1000C200ECE7F0E085919591009761F0A591B591EB
:1000D20005901590BF01F00105900D920197E1F78F
:1000E200FB01F0CFEFE5EDBFE8E0EEBFC0E6D2E006
:1000F2000C947B00EFEFE4BBEFE0E1BBE0E0E5BB9B
:10010200A0E178D145D1E1E0EA93A0E034D1A0E6C4
:10011200B2E05FD1E5E0EA93A1E02DD1AFE6B2E033
:1001220058D1A0EDB7E00E94C60332D1AFD01E2F46
:100132001F3F09F4A9C0AAD0EF3FE9F7A4E1B0E05C
:100142000E94C6031A3031F4A5E20E944B03E5E295
:100152005E2E9AC01B3031F4AAE20E944B03EAE2FF
:100162005E2E92C01D3031F4ADE20E944B03EDE2EF
:100172005E2E8AC01C3031F4ABE20E944B03EBE2EC
:100182005E2E82C01E30E9F5ADE30ED1E5E2E51543
:1001920029F40E9451030E94140517C0EAE2E515F2
:1001A20029F40E9451030E94C6040FC0EDE2E51536
:1001B20029F40E9451030E94620307C0EBE2E51595
:1001C20061F40E9451030E947604E0937F02F0934F
:1001D20080026093810270938202E0917F02F0912B
:1001E200800260918102709182020E94AA05E2E07F
:1001F200EA93A3E8B2E00E942902A3E8B2E0E9D0C0
:1002020043C01F30D1F4C4D0E0E0EA93A0E0B3D001
:10021200EFE7F2E00E946703EBE7F2E00E94670378
:10022200E0E0E0937702E0937802E0937902E093D2
:100232007A0255246624772427C0A12FA05DB4D06A
:100242000E946E03FF93EF93DF010E948B05A0E0F3
:10025200B0E080E291E40E94C604AF91BF910E9497
:1002620091050E946E03FF93EF93DF010E948B05BD
:10027200DF01CB01E12FF0E00E9476030E947604B9
:10028200AF91BF910E94910551CFFFCF1A931FEFFB
:10029200909A91980E947B03849B02C017E00AC047
:1002A200859B02C018E006C0869B02C019E002C00E
:1002B20087991AE09098919A0E947B03849B02C0CE
:1002C20014E00AC0859B02C015E006C0869B02C0EE
:1002D20016E002C087991BE090989198929A9398A1
:1002E200A5E0B0E00E94C603849B02C011E00AC0F0
:1002F200859B02C012E006C0869B02C013E002C0CA
:1003020087991DE0909891989298939AA5E0B0E011
:100312000E94C603849B02C01FE00AC0859B02C0E4
:1003220010E006C0869B02C01EE002C087991CE056
:10033200E12F19910895AA93E5B3EF70AE2FE881EA
:10034200E07FEA2BE5BB8DE08A95F1F7AA9A8DE072
:100352008A95F1F7AA988DE08A95F1F777C0AA936A
:10036200A881E9DFE881E295E883A881E4DF85E8F6
:100372008A95F1F76BC0AA93E881F0E0E857FD4F48
:10038200E081A981AE0FEBDF498098802296089523
:10039200A2E00E948103ACE0E2DFA1E00E948103BF
:1003A200E0E09E2E4E2E0895AA93A881AA3011F065
:1003B200481448F0E0E0EA939394A92DDCDFA88189
:1003C200AA3009F443C04394A89AA881C8DFA89828
:1003D2003DC0BA93AA931A93A981BA81ED91A983D8
:1003E200BA831E2FE03019F0A12FDEDFF5CF18817E
:1003F20023960895AA93E4B3E06FE4BBA29AA09A6D
:10040200A19AAA98A898A9988880E881E058E093D0
:100412008A02E881E054E0938B02A4E1B0E00E94FA
:10042200C6030E9487030E9487030E948703A0E2FB
:1004320082DF88EC90E00197F1F7A8E290DFA4E078
:100442008EDFA5E88CDFA6E08ADFA2DF2196089581
:10045200BA93AA932497E0E0E883E983EA83EFE37F
:10046200EB831A930A93EB85FC85EF3FAFEFFA0714
:1004720039F40E948F03A2E7B0E00E943E03B1C0AC
:10048200EF3FAFE7FA0739F40E948F03A3E7B0E02A
:100492000E943E03A6C0AC85AA2362F4E985FA85D0
:1004A2006B857C850E94D0030E9494030E9499036D
:1004B200EDE2EC93A885A73010F0E6E0E887188516
:1004C200E12F1150E03039F00E94A0030E94A503F1
:1004D2000E94AC03F5CF0E94B1030E9476040E94F1
:1004E200940310E0E0E0F0E060E87FE30E94AC03F8
:1004F2000E94B1030E94590588F00E94A0030E9445
:10050200BA030E94AC031F5F173238F00E948F03B8
:10051200A7E7B0E00E943E0364C0EACF103029F49E
:100522000E949903E0E3EC932FC0E12F1150E030D9
:1005320059F10E94A0030E94A503A0E0B0E080E070
:100542009FE30E947604DF01CB010E9427030E94F1
:10055200AC030E94B1030E9414050E9403040E2FF3
:100562000E949903E02FE05DEC93E02FF0E00E94FF
:10057200A0030E9476030E94C6040E94C1030E9447
:1005820062030E949403D1CFE885E03031F10E94EA
:100592009903EEE2EC93E885E150E887EF5FE9F03A
:1005A2000E94C1030E94BA030E949403E985FA855E
:1005B2006B857C850E9403040E2F0E949903E02F15
:1005C200E05DEC93E02FF0E00E94C1030E9476030D
:1005D2000E9462030E949403DECFAE81BF81E0E0FD
:1005E200EC93198108812D9608950E94AF057B81B5
:1005F2006A81F981E88177FB770F67FD7160972F38
:100602009E5781F078F0983190F4AA27BB2788276B
:1006120008948795B795A7959A95D1F7EA23FB2376
:10062200682305C0E8947727EE27FF2766276F77B0
:10063200769508F4606877F9A991B99189919991B1
:10064200EA17FB076807790797FB08950E94AF0531
:100652000E949B050E94F6020E94A00519F40E94C6
:10066200960509C0E6F70E949605A0E0B0E080E892
:100672009FE30E946F0424960895BA93AA93E99186
:10068200F991A991B991CD0105900D920020E1F760
:10069200FC0108950E94D501F30131963F010895AE
:1006A200E0917B02F0917C0260917D0270917E026A
:1006B200A0917702B09178028091790290917A02AA
:1006C20008950E94B4050E946F040895A0E0B0E06E
:1006D20080E090E00E94A5050895F301A7E7B2E04B
:1006E2000E948105EA0FFB1F08950E9486050E9461
:1006F2003C04089592989398A5E0B0E00C94C60348
:100702000E94B001A3E0B0E00C94C603A0E30E94F3
:100712009C0188EC90E00197F1F70895EE81FF814A
:10072200FA93EA930895E987FA876B877C8708959D
:10073200AE81BF811196AE83BF8311970895AA81BE
:10074200BB818C819D810895EDECFCEC6CEC7DE32A
:100752000E94C6040895EA83FB836C837D83089517
:10076200EA81FB816C817D81A985BA858B859C8517
:100772000895E0E0F0E060E271E40E94C6040895AA
:10078200A985BA858B859C850895109639F080EDF0
:1007920097E00197F1F7A8951197C9F70895309757
:1007A2006040704009F070580895552342F4503863
:1007B20011F4E0FF04C03196691F791F6BF050E815
:1007C200572711F45F93CFC05F3F31F0660F000CE3
:1007D20057956795752F08955F9300200AF0CFC053
:1007E200C8C050E8192E1522880F991F9527550F5A
:1007F200879550E8072E0522660F771F7527550F3C
:1008020067950895689401C0E8945F93F2DF7038A9
:1008120018F07F3F08F4A7C056E1571BAAF4519580
:1008220058300EF4593030F0EFEFFFEF6FEF7FE703
:1008320077F91AC077275523B9F0EE0FFF1F661F0D
:10084200771F5A95D1F710C07727583028F0EF2F2D
:10085200F62F672F5850F9CF552331F076956795CB
:10086200F795E7955A95D1F700200AF441D15F91A7
:100872000895689401C0E894309760407040B1F0E8
:10088200002426F0772312F4009432D1172E7EE151
:10089200112032F07A95EE0FFF1F661F111CF9CF5F
:1008A200EF2FF62F612D5F938ADF5F9108954F93AB
:1008B200AF01FD01DA01AB01BC01CA01402D012CDF
:1008C200142E4F910895EA0FFB1F681F0895E095BB
:1008D200F0956095EF5FFF4F6F4F08955F9381DF53
:1008E200903871F150E8152604C05F937ADF903892
:1008F20039F1703821F1572F591B2BF112F4D7DF40
:10090200FACF583118F0AA27BB278827583028F089
:10091200AB2FB82F88275850F9CF552329F0869549
:10092200B795A7955A95D9F7502D512572F0CBDF7F
:1009320038F46795F795E795739513F420C0B7DF00
:100942003EDF5F910895D8F7FBCFEA1BFB0B680BE4
:1009520051F010F40094BBDF662392F3EE0FFF1FF9
:10096200661F7A95CBF7EE27FF27662777275F91D9
:100972000895EFEFFFEF6FE77FEF5F910895EFEFDD
:10098200FFEF6FE77FE75F9108955F932ADF70388B
:1009920051F3903841F301240894791F23F41CF396
:1009A20000203AF3ECCF0F921F932F933F934F9374
:1009B200112722279927689FA0018F9F302D410D73
:1009C200591F6B9F300D411D591F8E9F27D0BF9F0E
:1009D20025D06A9F23D0BE9F1DD0AF9F1BD0AE9F54
:1009E200110D291F391F491F591FE32FF42F652F9E
:1009F200522F4F913F912F911F910F9066232AF012
:100A0200550FEE1FFF1F661F02C073954BF2CDDE1E
:100A12005F910895100D211D391F02C0200D311D57
:100A2200491F591F08955F93DCDE703821F41120AD
:100A32000AF49FCFA4CF903809F495CF01240894EB
:100A4200970B1BF4D4F30020F3CF792F1F932F932E
:100A52003F934F93112411272227332744275527E9
:100A620090E2AE17BF078607410730F0AE1BBF0BFF
:100A7200860B410B089401C08894551F221F331F17
:100A8200111CAA1FBB1F881F441F9A9551F7F90119
:100A9200612D4F913F912F911F91662332F0550F97
:100AA200EE1FFF1F661F7A9543F27FDE5F91089566
:100AB20099239AF0772342F0971748F029F4AE175A
:100AC200BF07860720F031F098948894089598948F
:100AD200089408951894889408957723C2F7971775
:100AE20098F3A9F7EA17FB07680788F399F3ECCFA5
:100AF200F09560957095E195FF4F6F4F7F4F089588
:100B0200EE0FFF1FEE0FFF1F08956F2F660F660B8C
:100B1200762F0895ED91FD916D917C911397089533
:100B2200ED93FD936D937C930895E881F9816A8139
:100B32007B810895A881B9818A819B810895E88388
:100B4200F9836A837B830895A083B183828393832D
:100B520008957A936A93FA93EA9308959A938A93FB
:100B6200BA93AA930895182E862F612D192E972FC6
:100B7200712D1B2EBF2FF12D1A2EAE2FE12D0895B0
:00000001FF
