:040000000C943F001D
:100004000C9400000C9400000C9400000C9400006C
:100014000C9400000C9400000C946C000C940000F0
:100024000C9400000C9400000C9400000C9400004C
:100034000C9400000C9400000C9400000C9400003C
:100044000C9400000C9400000C9400000C9400002C
:100054000200030005000800000080003F065B4F1B
:10006400666D7D077F6F0A00040054000100620280
:100074005E000A00630260000000F894EE27ECBB07
:10008400F1E0FBBFEBBFE5BF8DE0A2E0BB27ED9342
:100094008A95E9F780E098E0A0E6ED930197E9F707
:1000A400EAE6F0E085919591009761F0A591B5910C
:1000B40005901590BF01F00105900D920197E1F7AD
:1000C400FB01F0CFEFE5EDBFE8E0EEBFC0E6D2E024
:1000D4000C94D6000A92AA93BA93EA93FA93EFB7D0
:1000E400EA93E0E0E0936202ADD03196E0936002DF
:1000F400F0936102A7D0E17019F4E0E8E0936202A2
:10010400A0916002B09161021A9709F045C0E0E045
:10011400E0936002E0936102F60131966F01E6E03C
:10012400F0E0EC15FD05C1F5CC24DD24F501319694
:100134005F01EAE0F0E0EA15FB0571F5AA24BB24AF
:10014400F40131964F01E6E0F0E0E815F90521F5F8
:1001540088249924F30131963F01E4E0F0E0E615A8
:10016400F70529F4E2E0F0E0E415F50509F005C02F
:1001740066247724442455240FC0EAE0F0E0E61511
:10018400F70521F400240414050409F005C06624CD
:100194007724F20131962F01E991EFBFF991E991AA
:1001A400B991A99109901895E0E0E5BBEFEFE4BBA4
:1001B400E0E0E2BBEFEFE1BBE0E0EFBDECE0EEBD81
:1001C400E0E0EDBDECBDE7BDE6BDEAE7EBBDE2E195
:1001D400EABDE0E0E9BDE8BDE2E1E9BF7894EEEF15
:1001E400E2BBA3E6B2E0A40DB51D31D0EDEFE2BB56
:1001F400A3E6B2E0A60DB71D30D0EBEFE2BBA3E659
:10020400B2E0A80DB91D23D0E7EFE2BBA3E6B2E04C
:10021400AA0DBB1D22D0EFEEE2BBA3E6B2E0AC0D0B
:10022400BD1D15D0EFEDE2BB0DD0ED59FD4FE081C2
:10023400A0916202EA2BE5BBA1E0B0E00E94380184
:10024400CECFFFCFE0916002F09161020895EC916E
:10025400E5BBA1E0B0E00C943801EC91A0916202FE
:10026400EA2BE5BBA1E0B0E00C943801109639F01C
:1002740080ED97E00197F1F7A8951197C9F70895D4
:00000001FF
