:0C0000000C9443000C9400000C940000D1
:10000C000C9400000C9400000C9400000C94000064
:10001C000C9400000C9400000C9400000C94000054
:10002C000C9400000C9400000C9400000C94000044
:10003C000C9400000C9400000C9400000C94000034
:10004C000C9400000C9400004C4D33352053656E1D
:10005C00736F720054656D70203A0043000080C0CD
:10006C000C006002540007006C0260000200730276
:10007C006700020075026A000000F894EE27ECBBE2
:10008C00F1E0FBBFEBBFE5BF8DE0A2E0BB27ED933A
:10009C008A95E9F780E098E0A0E6ED930197E9F7FF
:1000AC00ECE6F0E085919591009761F0A591B59102
:1000BC0005901590BF01F00105900D920197E1F7A5
:1000CC00FB01F0CFEFE5EDBFE8E0EEBFC0E6D2E01C
:1000DC000C94AC00BA93AA93E881E05DA2C0BA93E9
:1000EC00AA930E94B40201E010E0AE81BF81EAE065
:1000FC00F0E00E949302DF01EDDF3E2FAE81BF8165
:10010C00EAE0F0E00E949802DF01E4DF2E2FEC81A0
:10011C00EA93A02F7BD0A32F90D0EC81EF5FEA93D2
:10012C00A02F74D0A22F89D00E94B90228960895CE
:10013C00AA93E881E064E7B98BE18A95F1F7369AE6
:10014C00349BFECF349AE4B1F5B1C6C0E0E0EBBB12
:10015C00EABBE8BBE7BBE5BBE4BBE2BBE1BB389A5F
:10016C00E5E8E6B9E0E0E0BFA0E18DD0E3E0EA939A
:10017C00A0E04CD0A0E6B2E075D0E2E0AFD0ACE6A7
:10018C00B2E070D0ECE0AAD0AFED57D0EDE0A6D045
:10019C00A3E7B2E067D0A0E0CBDF8F010E947B0227
:1001AC000E94F301A6E9BBE58AEF9EE30E942102BF
:1001BC000E94BC018F011A930A93A9E0B0E08FDF73
:1001CC00A4E6B0E00E948301E6CFFFCFAA93E5B38B
:1001DC00EF70AE2FE881E07FEA2BE5BB8DE08A95CE
:1001EC00F1F7AA9A8DE08A95F1F7AA988DE08A9595
:1001FC00F1F772C0AA93A881E9DFE881E295E88360
:10020C00A881E4DF85E88A95F1F766C0AA93E881B6
:10021C00F0E0EB58FD4FE081A981AE0FEBDF598088
:10022C00488022960895A2E05CD0ACE0E3DFA1E028
:10023C0058D0E0E04E2E5E2E0895AA93A881AA30E5
:10024C0011F0571448F0E0E0EA934394A42DDEDF5C
:10025C00A881AA3009F440C05394A89AA881CADF97
:10026C00A8983AC0BA93AA931A93A981BA81ED912E
:10027C00A983BA831E2FE03019F0A12FDEDFF5CF52
:10028C00188123960895AA93E4B3E06FE4BBA29A75
:10029C00A09AA19AAA98A898A9987880E881E05881
:1002AC00E0937702E881E054E0937802A4E1B0E0B7
:1002BC000E9483011BD01AD019D0A0E287DF88ECF2
:1002CC0090E00197F1F7A8E295DFA4E093DFA5E8B1
:1002DC0091DFA6E08FDFA7DF21960895EA93A1E0D6
:1002EC0095CF88DFA3E0B0E00C948301A0E36EDF30
:1002FC0088EC90E00197F1F70895109639F080EDB5
:10030C0097E00197F1F7A8951197C9F70895552330
:10031C0042F4503811F4E0FF04C03196691F791F84
:10032C006BF050E8572711F45F9373C05F3F31F0C7
:10033C00660F000C57956795752F08955F930020F5
:10034C000AF073C06CC050E8192E1522880F991F43
:10035C009527550F879550E8072E0522660F771FB6
:10036C007527550F67950895689401C0E8945F93BD
:10037C00F2DF703818F07F3F08F44BC056E1571B82
:10038C00AAF4519558300EF4593030F0EFEFFFEFDE
:10039C006FEF7FE777F91AC077275523B9F0EE0F87
:1003AC00FF1F661F771F5A95D1F710C0772758305B
:1003BC0028F0EF2FF62F672F5850F9CF552331F037
:1003CC0076956795F795E7955A95D1F700200AF43D
:1003DC0084D05F910895689401C0E8943097604090
:1003EC007040B1F0002426F0772312F4009475D0FD
:1003FC00172E7EE1112032F07A95EE0FFF1F661F4B
:10040C00111CF9CFEF2FF62F612D5F938ADF5F91CF
:10041C000895EE27FF27662777275F910895EFEF62
:10042C00FFEF6FE77FEF5F910895EFEFFFEF6FE75F
:10043C007FE75F9108955F9386DF703851F39038B2
:10044C0041F301240894791F23F41CF300203AF3A0
:10045C00ECCF0F921F932F933F934F93112722278B
:10046C009927689FA0018F9F302D410D591F6B9FBD
:10047C00300D411D591F8E9F27D0BF9F25D06A9FDD
:10048C0023D0BE9F1DD0AF9F1BD0AE9F110D291F37
:10049C00391F491F591FE32FF42F652F522F4F91EE
:1004AC003F912F911F910F9066232AF0550FEE1F4D
:1004BC00FF1F661F02C073954BF229DF5F910895F1
:1004CC00100D211D391F02C0200D311D491F591F50
:1004DC000895F195E195F0400895F095609570952B
:1004EC00E195FF4F6F4F7F4F08956F2F660F660B8F
:1004FC00762F08950024112490E1AA0FBB1F001C35
:10050C00111C0E1A1F0A18F40E0E1F1E01C0A1603A
:10051C009A9599F7FD01D001089512D0EBDF0EF4F6
:10052C00D8DF0895E894B7FF04C0A095B095119654
:10053C006894F7FDCEDFDEDFFD010EF4CADF08950F
:10054C00E894F7FF02C0C5DF6894B7FF06C0A0951A
:10055C00B095119600F8039400FA08953A932A93F3
:10056C001A930A9308953B812A8119810881089571
:00000001FF
