:0C0000000C9443000C9400000C940000D1
:10000C000C9400000C9400000C9400000C94000064
:10001C000C9400000C9400000C9400000C94000054
:10002C000C9400000C9400000C9400000C94000044
:10003C000C9400000C9400000C9400000C94000034
:10004C000C9400000C940000FFFD00FFFFFFF0F784
:10005C00F7F700FFFFC1BEBEBEC1FFFFB6B6B6B616
:10006C00C9FFFFFFFFFFFFFFFFFFFFFFFFFFFFFFCA
:10007C0000000000000000000000F894EE27ECBB2C
:10008C00F1E0FBBFEBBFE5BF8DE0A2E0BB27ED933A
:10009C008A95E9F780E098E0A0E6ED930197E9F7FF
:1000AC00EFE5EDBFE8E0EEBFC0E6D2E00C945E00F9
:1000BC00EFE7EABBE0E0EBBBE8EFE7BBE0E0E8BB77
:1000CC002497E2E1E883E0E0E983A881B981D59740
:1000DC0008F044C02297E0E0E883E983A881B98165
:1000EC001597ACF52497E0E0E883E1E0E983E0E0E4
:1000FC00EA83EB83E887E987A885B985179700F52C
:10010C00E881E8BBE885F985AE81BF81AE0FBF1FE2
:10011C00E3E2F0E00E94D900EC5AFF4F04900BBAD6
:10012C000E94DC000E94C1000E94E100A2E0B0E04D
:10013C000E94B700E885F9853196E887F987DCCF0E
:10014C002496E881F9813196E883F983C7CF22960A
:10015C00E881F9813196E883F983B7CF2496B0CF43
:10016C00FFCF109639F080EA9FE00197F1F7A89540
:10017C001197C9F7089576956795F795E7950895C2
:10018C000024112490E1AA0FBB1F001C111C0E1A95
:10019C001F0A18F40E0E1F1E01C0A1609A9599F744
:1001AC00FD01D0010895ECDFFD010895E881F9818E
:1001BC006A817B810895E883F9836A837B83089540
:00000001FF
